{
  "_format": "hh-sol-artifact-1",
  "contractName": "SOW",
  "sourceName": "contracts/tokens/SOW.sol",
  "abi": [
    {
      "anonymous": false,
      "inputs": [
        {
          "indexed": true,
          "internalType": "address",
          "name": "owner",
          "type": "address"
        },
        {
          "indexed": true,
          "internalType": "address",
          "name": "spender",
          "type": "address"
        },
        {
          "indexed": false,
          "internalType": "uint256",
          "name": "value",
          "type": "uint256"
        }
      ],
      "name": "Approval",
      "type": "event"
    },
    {
      "anonymous": false,
      "inputs": [
        {
          "indexed": false,
          "internalType": "uint8",
          "name": "version",
          "type": "uint8"
        }
      ],
      "name": "Initialized",
      "type": "event"
    },
    {
      "anonymous": false,
      "inputs": [
        {
          "indexed": false,
          "internalType": "address",
          "name": "prevAddress",
          "type": "address"
        },
        {
          "indexed": false,
          "internalType": "address",
          "name": "newAddress",
          "type": "address"
        }
      ],
      "name": "MinterChanged",
      "type": "event"
    },
    {
      "anonymous": false,
      "inputs": [
        {
          "indexed": true,
          "internalType": "address",
          "name": "previousOwner",
          "type": "address"
        },
        {
          "indexed": true,
          "internalType": "address",
          "name": "newOwner",
          "type": "address"
        }
      ],
      "name": "OwnershipTransferred",
      "type": "event"
    },
    {
      "anonymous": false,
      "inputs": [
        {
          "indexed": true,
          "internalType": "address",
          "name": "from",
          "type": "address"
        },
        {
          "indexed": true,
          "internalType": "address",
          "name": "to",
          "type": "address"
        },
        {
          "indexed": false,
          "internalType": "uint256",
          "name": "value",
          "type": "uint256"
        }
      ],
      "name": "Transfer",
      "type": "event"
    },
    {
      "inputs": [
        {
          "internalType": "address[]",
          "name": "recipients",
          "type": "address[]"
        },
        {
          "internalType": "uint256[]",
          "name": "amounts",
          "type": "uint256[]"
        }
      ],
      "name": "airdrop",
      "outputs": [],
      "stateMutability": "nonpayable",
      "type": "function"
    },
    {
      "inputs": [
        {
          "internalType": "address",
          "name": "owner",
          "type": "address"
        },
        {
          "internalType": "address",
          "name": "spender",
          "type": "address"
        }
      ],
      "name": "allowance",
      "outputs": [
        {
          "internalType": "uint256",
          "name": "",
          "type": "uint256"
        }
      ],
      "stateMutability": "view",
      "type": "function"
    },
    {
      "inputs": [
        {
          "internalType": "address",
          "name": "spender",
          "type": "address"
        },
        {
          "internalType": "uint256",
          "name": "amount",
          "type": "uint256"
        }
      ],
      "name": "approve",
      "outputs": [
        {
          "internalType": "bool",
          "name": "",
          "type": "bool"
        }
      ],
      "stateMutability": "nonpayable",
      "type": "function"
    },
    {
      "inputs": [
        {
          "internalType": "address",
          "name": "account",
          "type": "address"
        }
      ],
      "name": "balanceOf",
      "outputs": [
        {
          "internalType": "uint256",
          "name": "",
          "type": "uint256"
        }
      ],
      "stateMutability": "view",
      "type": "function"
    },
    {
      "inputs": [
        {
          "internalType": "address",
          "name": "account",
          "type": "address"
        },
        {
          "internalType": "uint256",
          "name": "amount",
          "type": "uint256"
        }
      ],
      "name": "burn",
      "outputs": [],
      "stateMutability": "nonpayable",
      "type": "function"
    },
    {
      "inputs": [
        {
          "internalType": "address",
          "name": "minterAddress",
          "type": "address"
        }
      ],
      "name": "changeMinter",
      "outputs": [],
      "stateMutability": "nonpayable",
      "type": "function"
    },
    {
      "inputs": [],
      "name": "decimals",
      "outputs": [
        {
          "internalType": "uint8",
          "name": "",
          "type": "uint8"
        }
      ],
      "stateMutability": "view",
      "type": "function"
    },
    {
      "inputs": [
        {
          "internalType": "address",
          "name": "spender",
          "type": "address"
        },
        {
          "internalType": "uint256",
          "name": "subtractedValue",
          "type": "uint256"
        }
      ],
      "name": "decreaseAllowance",
      "outputs": [
        {
          "internalType": "bool",
          "name": "",
          "type": "bool"
        }
      ],
      "stateMutability": "nonpayable",
      "type": "function"
    },
    {
      "inputs": [
        {
          "internalType": "address",
          "name": "spender",
          "type": "address"
        },
        {
          "internalType": "uint256",
          "name": "addedValue",
          "type": "uint256"
        }
      ],
      "name": "increaseAllowance",
      "outputs": [
        {
          "internalType": "bool",
          "name": "",
          "type": "bool"
        }
      ],
      "stateMutability": "nonpayable",
      "type": "function"
    },
    {
      "inputs": [],
      "name": "initialize",
      "outputs": [],
      "stateMutability": "nonpayable",
      "type": "function"
    },
    {
      "inputs": [
        {
          "internalType": "address",
          "name": "account",
          "type": "address"
        },
        {
          "internalType": "uint256",
          "name": "amount",
          "type": "uint256"
        }
      ],
      "name": "mint",
      "outputs": [],
      "stateMutability": "nonpayable",
      "type": "function"
    },
    {
      "inputs": [],
      "name": "minter",
      "outputs": [
        {
          "internalType": "address",
          "name": "",
          "type": "address"
        }
      ],
      "stateMutability": "view",
      "type": "function"
    },
    {
      "inputs": [],
      "name": "name",
      "outputs": [
        {
          "internalType": "string",
          "name": "",
          "type": "string"
        }
      ],
      "stateMutability": "view",
      "type": "function"
    },
    {
      "inputs": [],
      "name": "owner",
      "outputs": [
        {
          "internalType": "address",
          "name": "",
          "type": "address"
        }
      ],
      "stateMutability": "view",
      "type": "function"
    },
    {
      "inputs": [],
      "name": "renounceOwnership",
      "outputs": [],
      "stateMutability": "nonpayable",
      "type": "function"
    },
    {
      "inputs": [],
      "name": "symbol",
      "outputs": [
        {
          "internalType": "string",
          "name": "",
          "type": "string"
        }
      ],
      "stateMutability": "view",
      "type": "function"
    },
    {
      "inputs": [],
      "name": "totalSupply",
      "outputs": [
        {
          "internalType": "uint256",
          "name": "",
          "type": "uint256"
        }
      ],
      "stateMutability": "view",
      "type": "function"
    },
    {
      "inputs": [
        {
          "internalType": "address",
          "name": "to",
          "type": "address"
        },
        {
          "internalType": "uint256",
          "name": "amount",
          "type": "uint256"
        }
      ],
      "name": "transfer",
      "outputs": [
        {
          "internalType": "bool",
          "name": "",
          "type": "bool"
        }
      ],
      "stateMutability": "nonpayable",
      "type": "function"
    },
    {
      "inputs": [
        {
          "internalType": "address",
          "name": "from",
          "type": "address"
        },
        {
          "internalType": "address",
          "name": "to",
          "type": "address"
        },
        {
          "internalType": "uint256",
          "name": "amount",
          "type": "uint256"
        }
      ],
      "name": "transferFrom",
      "outputs": [
        {
          "internalType": "bool",
          "name": "",
          "type": "bool"
        }
      ],
      "stateMutability": "nonpayable",
      "type": "function"
    },
    {
      "inputs": [
        {
          "internalType": "address",
          "name": "newOwner",
          "type": "address"
        }
      ],
      "name": "transferOwnership",
      "outputs": [],
      "stateMutability": "nonpayable",
      "type": "function"
    }
  ],
  "bytecode": "0x608060405234801561001057600080fd5b5061172a806100206000396000f3fe608060405234801561001057600080fd5b506004361061016c5760003560e01c806370a08231116100cd5780639dc29fac11610081578063a9059cbb11610066578063a9059cbb146102d7578063dd62ed3e146102ea578063f2fde38b1461032357600080fd5b80639dc29fac146102b1578063a457c2d7146102c457600080fd5b80638129fc1c116100b25780638129fc1c146102905780638da5cb5b1461029857806395d89b41146102a957600080fd5b806370a082311461025f578063715018a61461028857600080fd5b80632c4d4d18116101245780633950935111610109578063395093511461022657806340c10f1914610239578063672434821461024c57600080fd5b80632c4d4d1814610202578063313ce5671461021757600080fd5b8063095ea7b311610155578063095ea7b3146101ba57806318160ddd146101dd57806323b872dd146101ef57600080fd5b806306fdde0314610171578063075461721461018f575b600080fd5b610179610336565b6040516101869190611299565b60405180910390f35b6097546101a2906001600160a01b031681565b6040516001600160a01b039091168152602001610186565b6101cd6101c8366004611303565b6103c8565b6040519015158152602001610186565b6067545b604051908152602001610186565b6101cd6101fd36600461132d565b6103e2565b610215610210366004611369565b610406565b005b60405160128152602001610186565b6101cd610234366004611303565b6104df565b610215610247366004611303565b61051e565b61021561025a366004611461565b61059b565b6101e161026d366004611369565b6001600160a01b031660009081526065602052604090205490565b61021561062c565b610215610640565b6033546001600160a01b03166101a2565b610179610831565b6102156102bf366004611303565b610840565b6101cd6102d2366004611303565b6108b9565b6101cd6102e5366004611303565b610963565b6101e16102f8366004611521565b6001600160a01b03918216600090815260666020908152604080832093909416825291909152205490565b610215610331366004611369565b610971565b60606068805461034590611554565b80601f016020809104026020016040519081016040528092919081815260200182805461037190611554565b80156103be5780601f10610393576101008083540402835291602001916103be565b820191906000526020600020905b8154815290600101906020018083116103a157829003601f168201915b5050505050905090565b6000336103d68185856109fe565b60019150505b92915050565b6000336103f0858285610b57565b6103fb858585610be3565b506001949350505050565b61040e610dd7565b6001600160a01b0381166104695760405162461bcd60e51b815260206004820152601a60248201527f534f573a206d696e74657241646472657373206973207a65726f00000000000060448201526064015b60405180910390fd5b609754604080516001600160a01b03928316815291831660208301527f3b0007eb941cf645526cbb3a4fdaecda9d28ce4843167d9263b536a1f1edc0f6910160405180910390a16097805473ffffffffffffffffffffffffffffffffffffffff19166001600160a01b0392909216919091179055565b3360008181526066602090815260408083206001600160a01b03871684529091528120549091906103d690829086906105199087906115a4565b6109fe565b6097546001600160a01b031633148061054157506033546001600160a01b031633145b61058d5760405162461bcd60e51b815260206004820152601860248201527f534f573a206f6e6c79206d696e74657220616c6c6f77656400000000000000006044820152606401610460565b6105978282610e31565b5050565b6105a3610dd7565b8151815181146105cf5760405162461bcd60e51b81526020600482015260006024820152604401610460565b60005b81811015610626576106168482815181106105ef576105ef6115b7565b6020026020010151848381518110610609576106096115b7565b6020026020010151610e31565b61061f816115cd565b90506105d2565b50505050565b610634610dd7565b61063e6000610ef2565b565b600054610100900460ff16158080156106605750600054600160ff909116105b8061067a5750303b15801561067a575060005460ff166001145b6106ec5760405162461bcd60e51b815260206004820152602e60248201527f496e697469616c697a61626c653a20636f6e747261637420697320616c72656160448201527f647920696e697469616c697a65640000000000000000000000000000000000006064820152608401610460565b6000805460ff19166001179055801561070f576000805461ff0019166101001790555b6107836040518060400160405280601381526020017f536561206f6620576973646f6d20546f6b656e000000000000000000000000008152506040518060400160405280600381526020017f534f570000000000000000000000000000000000000000000000000000000000815250610f51565b61078b610fc6565b6097805473ffffffffffffffffffffffffffffffffffffffff191633908117909155604080516000815260208101929092527f3b0007eb941cf645526cbb3a4fdaecda9d28ce4843167d9263b536a1f1edc0f6910160405180910390a1801561082e576000805461ff0019169055604051600181527f7f26b83ff96e1f2b6a682f133852f6798a09c465da95921460cefb38474024989060200160405180910390a15b50565b60606069805461034590611554565b6097546001600160a01b031633148061086357506033546001600160a01b031633145b6108af5760405162461bcd60e51b815260206004820152601860248201527f534f573a206f6e6c79206d696e74657220616c6c6f77656400000000000000006044820152606401610460565b6105978282611039565b3360008181526066602090815260408083206001600160a01b0387168452909152812054909190838110156109565760405162461bcd60e51b815260206004820152602560248201527f45524332303a2064656372656173656420616c6c6f77616e63652062656c6f7760448201527f207a65726f0000000000000000000000000000000000000000000000000000006064820152608401610460565b6103fb82868684036109fe565b6000336103d6818585610be3565b610979610dd7565b6001600160a01b0381166109f55760405162461bcd60e51b815260206004820152602660248201527f4f776e61626c653a206e6577206f776e657220697320746865207a65726f206160448201527f64647265737300000000000000000000000000000000000000000000000000006064820152608401610460565b61082e81610ef2565b6001600160a01b038316610a795760405162461bcd60e51b8152602060048201526024808201527f45524332303a20617070726f76652066726f6d20746865207a65726f2061646460448201527f72657373000000000000000000000000000000000000000000000000000000006064820152608401610460565b6001600160a01b038216610af55760405162461bcd60e51b815260206004820152602260248201527f45524332303a20617070726f766520746f20746865207a65726f20616464726560448201527f73730000000000000000000000000000000000000000000000000000000000006064820152608401610460565b6001600160a01b0383811660008181526066602090815260408083209487168084529482529182902085905590518481527f8c5be1e5ebec7d5bd14f71427d1e84f3dd0314c0f7b2291e5b200ac8c7c3b92591015b60405180910390a3505050565b6001600160a01b0383811660009081526066602090815260408083209386168352929052205460001981146106265781811015610bd65760405162461bcd60e51b815260206004820152601d60248201527f45524332303a20696e73756666696369656e7420616c6c6f77616e63650000006044820152606401610460565b61062684848484036109fe565b6001600160a01b038316610c5f5760405162461bcd60e51b815260206004820152602560248201527f45524332303a207472616e736665722066726f6d20746865207a65726f20616460448201527f64726573730000000000000000000000000000000000000000000000000000006064820152608401610460565b6001600160a01b038216610cdb5760405162461bcd60e51b815260206004820152602360248201527f45524332303a207472616e7366657220746f20746865207a65726f206164647260448201527f65737300000000000000000000000000000000000000000000000000000000006064820152608401610460565b6001600160a01b03831660009081526065602052604090205481811015610d6a5760405162461bcd60e51b815260206004820152602660248201527f45524332303a207472616e7366657220616d6f756e742065786365656473206260448201527f616c616e636500000000000000000000000000000000000000000000000000006064820152608401610460565b6001600160a01b0380851660008181526065602052604080822086860390559286168082529083902080548601905591517fddf252ad1be2c89b69c2b068fc378daa952ba7f163c4a11628f55a4df523b3ef90610dca9086815260200190565b60405180910390a3610626565b6033546001600160a01b0316331461063e5760405162461bcd60e51b815260206004820181905260248201527f4f776e61626c653a2063616c6c6572206973206e6f7420746865206f776e65726044820152606401610460565b6001600160a01b038216610e875760405162461bcd60e51b815260206004820152601f60248201527f45524332303a206d696e7420746f20746865207a65726f2061646472657373006044820152606401610460565b8060676000828254610e9991906115a4565b90915550506001600160a01b0382166000818152606560209081526040808320805486019055518481527fddf252ad1be2c89b69c2b068fc378daa952ba7f163c4a11628f55a4df523b3ef910160405180910390a35050565b603380546001600160a01b0383811673ffffffffffffffffffffffffffffffffffffffff19831681179093556040519116919082907f8be0079c531659141344cd1fd0a4f28419497f9722a3daafe3b4186f6b6457e090600090a35050565b600054610100900460ff16610fbc5760405162461bcd60e51b815260206004820152602b60248201527f496e697469616c697a61626c653a20636f6e7472616374206973206e6f74206960448201526a6e697469616c697a696e6760a81b6064820152608401610460565b61059782826111a1565b600054610100900460ff166110315760405162461bcd60e51b815260206004820152602b60248201527f496e697469616c697a61626c653a20636f6e7472616374206973206e6f74206960448201526a6e697469616c697a696e6760a81b6064820152608401610460565b61063e611225565b6001600160a01b0382166110b55760405162461bcd60e51b815260206004820152602160248201527f45524332303a206275726e2066726f6d20746865207a65726f2061646472657360448201527f73000000000000000000000000000000000000000000000000000000000000006064820152608401610460565b6001600160a01b038216600090815260656020526040902054818110156111445760405162461bcd60e51b815260206004820152602260248201527f45524332303a206275726e20616d6f756e7420657863656564732062616c616e60448201527f63650000000000000000000000000000000000000000000000000000000000006064820152608401610460565b6001600160a01b03831660008181526065602090815260408083208686039055606780548790039055518581529192917fddf252ad1be2c89b69c2b068fc378daa952ba7f163c4a11628f55a4df523b3ef9101610b4a565b505050565b600054610100900460ff1661120c5760405162461bcd60e51b815260206004820152602b60248201527f496e697469616c697a61626c653a20636f6e7472616374206973206e6f74206960448201526a6e697469616c697a696e6760a81b6064820152608401610460565b60686112188382611634565b50606961119c8282611634565b600054610100900460ff166112905760405162461bcd60e51b815260206004820152602b60248201527f496e697469616c697a61626c653a20636f6e7472616374206973206e6f74206960448201526a6e697469616c697a696e6760a81b6064820152608401610460565b61063e33610ef2565b600060208083528351808285015260005b818110156112c6578581018301518582016040015282016112aa565b506000604082860101526040601f19601f8301168501019250505092915050565b80356001600160a01b03811681146112fe57600080fd5b919050565b6000806040838503121561131657600080fd5b61131f836112e7565b946020939093013593505050565b60008060006060848603121561134257600080fd5b61134b846112e7565b9250611359602085016112e7565b9150604084013590509250925092565b60006020828403121561137b57600080fd5b611384826112e7565b9392505050565b634e487b7160e01b600052604160045260246000fd5b604051601f8201601f1916810167ffffffffffffffff811182821017156113ca576113ca61138b565b604052919050565b600067ffffffffffffffff8211156113ec576113ec61138b565b5060051b60200190565b600082601f83011261140757600080fd5b8135602061141c611417836113d2565b6113a1565b82815260059290921b8401810191818101908684111561143b57600080fd5b8286015b84811015611456578035835291830191830161143f565b509695505050505050565b6000806040838503121561147457600080fd5b823567ffffffffffffffff8082111561148c57600080fd5b818501915085601f8301126114a057600080fd5b813560206114b0611417836113d2565b82815260059290921b840181019181810190898411156114cf57600080fd5b948201945b838610156114f4576114e5866112e7565b825294820194908201906114d4565b9650508601359250508082111561150a57600080fd5b50611517858286016113f6565b9150509250929050565b6000806040838503121561153457600080fd5b61153d836112e7565b915061154b602084016112e7565b90509250929050565b600181811c9082168061156857607f821691505b60208210810361158857634e487b7160e01b600052602260045260246000fd5b50919050565b634e487b7160e01b600052601160045260246000fd5b808201808211156103dc576103dc61158e565b634e487b7160e01b600052603260045260246000fd5b6000600182016115df576115df61158e565b5060010190565b601f82111561119c57600081815260208120601f850160051c8101602086101561160d5750805b601f850160051c820191505b8181101561162c57828155600101611619565b505050505050565b815167ffffffffffffffff81111561164e5761164e61138b565b6116628161165c8454611554565b846115e6565b602080601f831160018114611697576000841561167f5750858301515b600019600386901b1c1916600185901b17855561162c565b600085815260208120601f198616915b828110156116c6578886015182559484019460019091019084016116a7565b50858210156116e45787850151600019600388901b60f8161c191681555b5050505050600190811b0190555056fea26469706673582212206e66fd162230ac24a75510f33d5f99c32abf3646b2ea60193e670c85aa4e80fc64736f6c63430008110033",
  "linkReferences": {},
  "deployedLinkReferences": {}
}